{
  "_format": "hh-sol-artifact-1",
  "contractName": "ERC721Standard",
  "sourceName": "contracts/tokens/ERC721Standard.sol",
  "abi": [
    {
      "inputs": [
        {
          "internalType": "string",
          "name": "_name",
          "type": "string"
        },
        {
          "internalType": "string",
          "name": "_symbol",
          "type": "string"
        }
      ],
      "stateMutability": "nonpayable",
      "type": "constructor"
    },
    {
      "anonymous": false,
      "inputs": [
        {
          "indexed": true,
          "internalType": "address",
          "name": "owner",
          "type": "address"
        },
        {
          "indexed": true,
          "internalType": "address",
          "name": "approved",
          "type": "address"
        },
        {
          "indexed": true,
          "internalType": "uint256",
          "name": "tokenId",
          "type": "uint256"
        }
      ],
      "name": "Approval",
      "type": "event"
    },
    {
      "anonymous": false,
      "inputs": [
        {
          "indexed": true,
          "internalType": "address",
          "name": "owner",
          "type": "address"
        },
        {
          "indexed": true,
          "internalType": "address",
          "name": "operator",
          "type": "address"
        },
        {
          "indexed": false,
          "internalType": "bool",
          "name": "approved",
          "type": "bool"
        }
      ],
      "name": "ApprovalForAll",
      "type": "event"
    },
    {
      "anonymous": false,
      "inputs": [
        {
          "indexed": true,
          "internalType": "bytes32",
          "name": "role",
          "type": "bytes32"
        },
        {
          "indexed": true,
          "internalType": "bytes32",
          "name": "previousAdminRole",
          "type": "bytes32"
        },
        {
          "indexed": true,
          "internalType": "bytes32",
          "name": "newAdminRole",
          "type": "bytes32"
        }
      ],
      "name": "RoleAdminChanged",
      "type": "event"
    },
    {
      "anonymous": false,
      "inputs": [
        {
          "indexed": true,
          "internalType": "bytes32",
          "name": "role",
          "type": "bytes32"
        },
        {
          "indexed": true,
          "internalType": "address",
          "name": "account",
          "type": "address"
        },
        {
          "indexed": true,
          "internalType": "address",
          "name": "sender",
          "type": "address"
        }
      ],
      "name": "RoleGranted",
      "type": "event"
    },
    {
      "anonymous": false,
      "inputs": [
        {
          "indexed": true,
          "internalType": "bytes32",
          "name": "role",
          "type": "bytes32"
        },
        {
          "indexed": true,
          "internalType": "address",
          "name": "account",
          "type": "address"
        },
        {
          "indexed": true,
          "internalType": "address",
          "name": "sender",
          "type": "address"
        }
      ],
      "name": "RoleRevoked",
      "type": "event"
    },
    {
      "anonymous": false,
      "inputs": [
        {
          "indexed": true,
          "internalType": "address",
          "name": "from",
          "type": "address"
        },
        {
          "indexed": true,
          "internalType": "address",
          "name": "to",
          "type": "address"
        },
        {
          "indexed": true,
          "internalType": "uint256",
          "name": "tokenId",
          "type": "uint256"
        }
      ],
      "name": "Transfer",
      "type": "event"
    },
    {
      "inputs": [],
      "name": "DEFAULT_ADMIN_ROLE",
      "outputs": [
        {
          "internalType": "bytes32",
          "name": "",
          "type": "bytes32"
        }
      ],
      "stateMutability": "view",
      "type": "function"
    },
    {
      "inputs": [],
      "name": "MINTER_ROLE",
      "outputs": [
        {
          "internalType": "bytes32",
          "name": "",
          "type": "bytes32"
        }
      ],
      "stateMutability": "view",
      "type": "function"
    },
    {
      "inputs": [],
      "name": "UNIT",
      "outputs": [
        {
          "internalType": "uint256",
          "name": "",
          "type": "uint256"
        }
      ],
      "stateMutability": "view",
      "type": "function"
    },
    {
      "inputs": [
        {
          "internalType": "address",
          "name": "to",
          "type": "address"
        },
        {
          "internalType": "uint256",
          "name": "tokenId",
          "type": "uint256"
        }
      ],
      "name": "approve",
      "outputs": [],
      "stateMutability": "nonpayable",
      "type": "function"
    },
    {
      "inputs": [
        {
          "internalType": "address",
          "name": "owner",
          "type": "address"
        }
      ],
      "name": "balanceOf",
      "outputs": [
        {
          "internalType": "uint256",
          "name": "",
          "type": "uint256"
        }
      ],
      "stateMutability": "view",
      "type": "function"
    },
    {
      "inputs": [
        {
          "internalType": "address[]",
          "name": "_to",
          "type": "address[]"
        },
        {
          "internalType": "string[]",
          "name": "_uri",
          "type": "string[]"
        }
      ],
      "name": "batchMint",
      "outputs": [],
      "stateMutability": "nonpayable",
      "type": "function"
    },
    {
      "inputs": [],
      "name": "currentTokenId",
      "outputs": [
        {
          "internalType": "uint256",
          "name": "",
          "type": "uint256"
        }
      ],
      "stateMutability": "view",
      "type": "function"
    },
    {
      "inputs": [
        {
          "internalType": "uint256",
          "name": "tokenId",
          "type": "uint256"
        }
      ],
      "name": "getApproved",
      "outputs": [
        {
          "internalType": "address",
          "name": "",
          "type": "address"
        }
      ],
      "stateMutability": "view",
      "type": "function"
    },
    {
      "inputs": [
        {
          "internalType": "address",
          "name": "to",
          "type": "address"
        }
      ],
      "name": "getBalance",
      "outputs": [
        {
          "internalType": "uint256",
          "name": "",
          "type": "uint256"
        }
      ],
      "stateMutability": "view",
      "type": "function"
    },
    {
      "inputs": [
        {
          "internalType": "bytes32",
          "name": "role",
          "type": "bytes32"
        }
      ],
      "name": "getRoleAdmin",
      "outputs": [
        {
          "internalType": "bytes32",
          "name": "",
          "type": "bytes32"
        }
      ],
      "stateMutability": "view",
      "type": "function"
    },
    {
      "inputs": [
        {
          "internalType": "address",
          "name": "to",
          "type": "address"
        },
        {
          "internalType": "uint256",
          "name": "index",
          "type": "uint256"
        }
      ],
      "name": "getTokenId",
      "outputs": [
        {
          "internalType": "uint256",
          "name": "",
          "type": "uint256"
        }
      ],
      "stateMutability": "view",
      "type": "function"
    },
    {
      "inputs": [
        {
          "internalType": "bytes32",
          "name": "role",
          "type": "bytes32"
        },
        {
          "internalType": "address",
          "name": "account",
          "type": "address"
        }
      ],
      "name": "grantRole",
      "outputs": [],
      "stateMutability": "nonpayable",
      "type": "function"
    },
    {
      "inputs": [
        {
          "internalType": "bytes32",
          "name": "role",
          "type": "bytes32"
        },
        {
          "internalType": "address",
          "name": "account",
          "type": "address"
        }
      ],
      "name": "hasRole",
      "outputs": [
        {
          "internalType": "bool",
          "name": "",
          "type": "bool"
        }
      ],
      "stateMutability": "view",
      "type": "function"
    },
    {
      "inputs": [
        {
          "internalType": "address",
          "name": "owner",
          "type": "address"
        },
        {
          "internalType": "address",
          "name": "operator",
          "type": "address"
        }
      ],
      "name": "isApprovedForAll",
      "outputs": [
        {
          "internalType": "bool",
          "name": "",
          "type": "bool"
        }
      ],
      "stateMutability": "view",
      "type": "function"
    },
    {
      "inputs": [
        {
          "internalType": "address",
          "name": "_to",
          "type": "address"
        },
        {
          "internalType": "string",
          "name": "_uri",
          "type": "string"
        }
      ],
      "name": "mint",
      "outputs": [],
      "stateMutability": "nonpayable",
      "type": "function"
    },
    {
      "inputs": [],
      "name": "name",
      "outputs": [
        {
          "internalType": "string",
          "name": "",
          "type": "string"
        }
      ],
      "stateMutability": "view",
      "type": "function"
    },
    {
      "inputs": [
        {
          "internalType": "uint256",
          "name": "tokenId",
          "type": "uint256"
        }
      ],
      "name": "ownerOf",
      "outputs": [
        {
          "internalType": "address",
          "name": "",
          "type": "address"
        }
      ],
      "stateMutability": "view",
      "type": "function"
    },
    {
      "inputs": [
        {
          "internalType": "bytes32",
          "name": "role",
          "type": "bytes32"
        },
        {
          "internalType": "address",
          "name": "account",
          "type": "address"
        }
      ],
      "name": "renounceRole",
      "outputs": [],
      "stateMutability": "nonpayable",
      "type": "function"
    },
    {
      "inputs": [
        {
          "internalType": "bytes32",
          "name": "role",
          "type": "bytes32"
        },
        {
          "internalType": "address",
          "name": "account",
          "type": "address"
        }
      ],
      "name": "revokeRole",
      "outputs": [],
      "stateMutability": "nonpayable",
      "type": "function"
    },
    {
      "inputs": [
        {
          "internalType": "address",
          "name": "from",
          "type": "address"
        },
        {
          "internalType": "address",
          "name": "to",
          "type": "address"
        },
        {
          "internalType": "uint256",
          "name": "tokenId",
          "type": "uint256"
        }
      ],
      "name": "safeTransferFrom",
      "outputs": [],
      "stateMutability": "nonpayable",
      "type": "function"
    },
    {
      "inputs": [
        {
          "internalType": "address",
          "name": "from",
          "type": "address"
        },
        {
          "internalType": "address",
          "name": "to",
          "type": "address"
        },
        {
          "internalType": "uint256",
          "name": "tokenId",
          "type": "uint256"
        },
        {
          "internalType": "bytes",
          "name": "_data",
          "type": "bytes"
        }
      ],
      "name": "safeTransferFrom",
      "outputs": [],
      "stateMutability": "nonpayable",
      "type": "function"
    },
    {
      "inputs": [
        {
          "internalType": "address",
          "name": "operator",
          "type": "address"
        },
        {
          "internalType": "bool",
          "name": "approved",
          "type": "bool"
        }
      ],
      "name": "setApprovalForAll",
      "outputs": [],
      "stateMutability": "nonpayable",
      "type": "function"
    },
    {
      "inputs": [
        {
          "internalType": "bytes4",
          "name": "_interfaceId",
          "type": "bytes4"
        }
      ],
      "name": "supportsInterface",
      "outputs": [
        {
          "internalType": "bool",
          "name": "",
          "type": "bool"
        }
      ],
      "stateMutability": "view",
      "type": "function"
    },
    {
      "inputs": [],
      "name": "symbol",
      "outputs": [
        {
          "internalType": "string",
          "name": "",
          "type": "string"
        }
      ],
      "stateMutability": "view",
      "type": "function"
    },
    {
      "inputs": [
        {
          "internalType": "uint256",
          "name": "index",
          "type": "uint256"
        }
      ],
      "name": "tokenByIndex",
      "outputs": [
        {
          "internalType": "uint256",
          "name": "",
          "type": "uint256"
        }
      ],
      "stateMutability": "view",
      "type": "function"
    },
    {
      "inputs": [
        {
          "internalType": "address",
          "name": "owner",
          "type": "address"
        },
        {
          "internalType": "uint256",
          "name": "index",
          "type": "uint256"
        }
      ],
      "name": "tokenOfOwnerByIndex",
      "outputs": [
        {
          "internalType": "uint256",
          "name": "",
          "type": "uint256"
        }
      ],
      "stateMutability": "view",
      "type": "function"
    },
    {
      "inputs": [
        {
          "internalType": "uint256",
          "name": "_tokenId",
          "type": "uint256"
        }
      ],
      "name": "tokenURI",
      "outputs": [
        {
          "internalType": "string",
          "name": "",
          "type": "string"
        }
      ],
      "stateMutability": "view",
      "type": "function"
    },
    {
      "inputs": [],
      "name": "totalSupply",
      "outputs": [
        {
          "internalType": "uint256",
          "name": "",
          "type": "uint256"
        }
      ],
      "stateMutability": "view",
      "type": "function"
    },
    {
      "inputs": [
        {
          "internalType": "address",
          "name": "from",
          "type": "address"
        },
        {
          "internalType": "address",
          "name": "to",
          "type": "address"
        },
        {
          "internalType": "uint256",
          "name": "tokenId",
          "type": "uint256"
        }
      ],
      "name": "transferFrom",
      "outputs": [],
      "stateMutability": "nonpayable",
      "type": "function"
    },
    {
      "inputs": [
        {
          "internalType": "uint256",
          "name": "",
          "type": "uint256"
        }
      ],
      "name": "uri",
      "outputs": [
        {
          "internalType": "string",
          "name": "",
          "type": "string"
        }
      ],
      "stateMutability": "view",
      "type": "function"
    }
  ],
  "bytecode": "0x60806040523480156200001157600080fd5b506040516200262f3803806200262f8339810160408190526200003491620002b3565b8151829082906200004d9060019060208501906200015a565b508051620000639060029060208401906200015a565b5062000076915060009050335b620000aa565b620000a27f9f2df0fed2c77648de5860a4cc508cd0818c85b8b8a1ab4ceeef8d981c8956a63362000070565b50506200036d565b620000b68282620000ba565b5050565b6000828152602081815260408083206001600160a01b038516845290915290205460ff16620000b6576000828152602081815260408083206001600160a01b03851684529091529020805460ff19166001179055620001163390565b6001600160a01b0316816001600160a01b0316837f2f8788117e7eff1d82e926ec794901d17c78024a50270940304540a733656f0d60405160405180910390a45050565b82805462000168906200031a565b90600052602060002090601f0160209004810192826200018c5760008555620001d7565b82601f10620001a757805160ff1916838001178555620001d7565b82800160010185558215620001d7579182015b82811115620001d7578251825591602001919060010190620001ba565b50620001e5929150620001e9565b5090565b5b80821115620001e55760008155600101620001ea565b600082601f83011262000211578081fd5b81516001600160401b03808211156200022e576200022e62000357565b604051601f8301601f19908116603f0116810190828211818310171562000259576200025962000357565b8160405283815260209250868385880101111562000275578485fd5b8491505b8382101562000298578582018301518183018401529082019062000279565b83821115620002a957848385830101525b9695505050505050565b60008060408385031215620002c6578182fd5b82516001600160401b0380821115620002dd578384fd5b620002eb8683870162000200565b9350602085015191508082111562000301578283fd5b50620003108582860162000200565b9150509250929050565b600181811c908216806200032f57607f821691505b602082108114156200035157634e487b7160e01b600052602260045260246000fd5b50919050565b634e487b7160e01b600052604160045260246000fd5b6122b2806200037d6000396000f3fe608060405234801561001057600080fd5b50600436106101d95760003560e01c80636352211e11610104578063a22cb465116100a2578063d539139311610071578063d5391393146103ec578063d547741f14610413578063e985e9c514610426578063f8b2cb4f14610462576101d9565b8063a22cb465146103a0578063b88d4fde146103b3578063c87b56dd146103c6578063d0def521146103d9576101d9565b806391d14854116100de57806391d148541461036e57806395d89b41146103815780639d8e217714610389578063a217fddf14610398576101d9565b80636352211e1461033557806364ba144e1461034857806370a082311461035b576101d9565b806323b872dd1161017c5780632f745c591161014b5780632f745c59146102e957806336568abe146102fc57806342842e0e1461030f5780634f6ccce714610322576101d9565b806323b872dd1461028d578063248a9ca3146102a057806329f99b9f146102c35780632f2ff15d146102d6576101d9565b8063081812fc116101b8578063081812fc14610232578063095ea7b31461025d5780630e89341c1461027257806318160ddd14610285576101d9565b80629a9b7b146101de57806301ffc9a7146101fa57806306fdde031461021d575b600080fd5b6101e7600b5481565b6040519081526020015b60405180910390f35b61020d610208366004611f2f565b610475565b60405190151581526020016101f1565b610225610488565b6040516101f19190612045565b610245610240366004611ef5565b61051a565b6040516001600160a01b0390911681526020016101f1565b61027061026b366004611e15565b6105b4565b005b610225610280366004611ef5565b6106ca565b6009546101e7565b61027061029b366004611cdb565b610764565b6101e76102ae366004611ef5565b60009081526020819052604090206001015490565b6101e76102d1366004611e15565b610795565b6102706102e4366004611f0d565b6107a8565b6101e76102f7366004611e15565b6107cf565b61027061030a366004611f0d565b610865565b61027061031d366004611cdb565b6108e3565b6101e7610330366004611ef5565b6108fe565b610245610343366004611ef5565b61099f565b610270610356366004611e3e565b610a16565b6101e7610369366004611c8f565b610b32565b61020d61037c366004611f0d565b610bb9565b610225610be2565b6101e7670de0b6b3a764000081565b6101e7600081565b6102706103ae366004611d8f565b610bf1565b6102706103c1366004611d16565b610bfc565b6102256103d4366004611ef5565b610c34565b6102706103e7366004611dc9565b610cd6565b6101e77f9f2df0fed2c77648de5860a4cc508cd0818c85b8b8a1ab4ceeef8d981c8956a681565b610270610421366004611f0d565b610d44565b61020d610434366004611ca9565b6001600160a01b03918216600090815260066020908152604080832093909416825291909152205460ff1690565b6101e7610470366004611c8f565b610d6a565b600061048082610d75565b90505b919050565b606060018054610497906121e1565b80601f01602080910402602001604051908101604052809291908181526020018280546104c3906121e1565b80156105105780601f106104e557610100808354040283529160200191610510565b820191906000526020600020905b8154815290600101906020018083116104f357829003601f168201915b5050505050905090565b6000818152600360205260408120546001600160a01b03166105985760405162461bcd60e51b815260206004820152602c60248201527f4552433732313a20617070726f76656420717565727920666f72206e6f6e657860448201526b34b9ba32b73a103a37b5b2b760a11b60648201526084015b60405180910390fd5b506000908152600560205260409020546001600160a01b031690565b60006105bf8261099f565b9050806001600160a01b0316836001600160a01b0316141561062d5760405162461bcd60e51b815260206004820152602160248201527f4552433732313a20617070726f76616c20746f2063757272656e74206f776e656044820152603960f91b606482015260840161058f565b336001600160a01b038216148061064957506106498133610434565b6106bb5760405162461bcd60e51b815260206004820152603860248201527f4552433732313a20617070726f76652063616c6c6572206973206e6f74206f7760448201527f6e6572206e6f7220617070726f76656420666f7220616c6c0000000000000000606482015260840161058f565b6106c58383610d9a565b505050565b600c60205260009081526040902080546106e3906121e1565b80601f016020809104026020016040519081016040528092919081815260200182805461070f906121e1565b801561075c5780601f106107315761010080835404028352916020019161075c565b820191906000526020600020905b81548152906001019060200180831161073f57829003601f168201915b505050505081565b61076e3382610e08565b61078a5760405162461bcd60e51b815260040161058f906120aa565b6106c5838383610eff565b60006107a183836107cf565b9392505050565b6000828152602081905260409020600101546107c581335b6110aa565b6106c5838361110e565b60006107da83610b32565b821061083c5760405162461bcd60e51b815260206004820152602b60248201527f455243373231456e756d657261626c653a206f776e657220696e646578206f7560448201526a74206f6620626f756e647360a81b606482015260840161058f565b506001600160a01b03919091166000908152600760209081526040808320938352929052205490565b6001600160a01b03811633146108d55760405162461bcd60e51b815260206004820152602f60248201527f416363657373436f6e74726f6c3a2063616e206f6e6c792072656e6f756e636560448201526e103937b632b9903337b91039b2b63360891b606482015260840161058f565b6108df8282611192565b5050565b6106c583838360405180602001604052806000815250610bfc565b600061090960095490565b821061096c5760405162461bcd60e51b815260206004820152602c60248201527f455243373231456e756d657261626c653a20676c6f62616c20696e646578206f60448201526b7574206f6620626f756e647360a01b606482015260840161058f565b6009828154811061098d57634e487b7160e01b600052603260045260246000fd5b90600052602060002001549050919050565b6000818152600360205260408120546001600160a01b0316806104805760405162461bcd60e51b815260206004820152602960248201527f4552433732313a206f776e657220717565727920666f72206e6f6e657869737460448201526832b73a103a37b5b2b760b91b606482015260840161058f565b610a407f9f2df0fed2c77648de5860a4cc508cd0818c85b8b8a1ab4ceeef8d981c8956a63361037c565b610a7a5760405162461bcd60e51b815260206004820152600b60248201526a27b7363c9036b4b73a32b960a91b604482015260640161058f565b8051825114610abc5760405162461bcd60e51b815260206004820152600e60248201526d496e76616c696420706172616d7360901b604482015260640161058f565b60005b82518110156106c557610b20838281518110610aeb57634e487b7160e01b600052603260045260246000fd5b6020026020010151838381518110610b1357634e487b7160e01b600052603260045260246000fd5b60200260200101516111f7565b80610b2a8161221c565b915050610abf565b60006001600160a01b038216610b9d5760405162461bcd60e51b815260206004820152602a60248201527f4552433732313a2062616c616e636520717565727920666f7220746865207a65604482015269726f206164647265737360b01b606482015260840161058f565b506001600160a01b031660009081526004602052604090205490565b6000918252602082815260408084206001600160a01b0393909316845291905290205460ff1690565b606060028054610497906121e1565b6108df33838361127e565b610c063383610e08565b610c225760405162461bcd60e51b815260040161058f906120aa565b610c2e8484848461134d565b50505050565b6000818152600c60205260409020805460609190610c51906121e1565b80601f0160208091040260200160405190810160405280929190818152602001828054610c7d906121e1565b8015610cca5780601f10610c9f57610100808354040283529160200191610cca565b820191906000526020600020905b815481529060010190602001808311610cad57829003601f168201915b50505050509050919050565b610d007f9f2df0fed2c77648de5860a4cc508cd0818c85b8b8a1ab4ceeef8d981c8956a63361037c565b610d3a5760405162461bcd60e51b815260206004820152600b60248201526a27b7363c9036b4b73a32b960a91b604482015260640161058f565b6108df82826111f7565b600082815260208190526040902060010154610d6081336107c0565b6106c58383611192565b600061048082610b32565b60006001600160e01b0319821663780e9d6360e01b1480610480575061048082611380565b600081815260056020526040902080546001600160a01b0319166001600160a01b0384169081179091558190610dcf8261099f565b6001600160a01b03167f8c5be1e5ebec7d5bd14f71427d1e84f3dd0314c0f7b2291e5b200ac8c7c3b92560405160405180910390a45050565b6000818152600360205260408120546001600160a01b0316610e815760405162461bcd60e51b815260206004820152602c60248201527f4552433732313a206f70657261746f7220717565727920666f72206e6f6e657860448201526b34b9ba32b73a103a37b5b2b760a11b606482015260840161058f565b6000610e8c8361099f565b9050806001600160a01b0316846001600160a01b03161480610ec75750836001600160a01b0316610ebc8461051a565b6001600160a01b0316145b80610ef757506001600160a01b0380821660009081526006602090815260408083209388168352929052205460ff165b949350505050565b826001600160a01b0316610f128261099f565b6001600160a01b031614610f7a5760405162461bcd60e51b815260206004820152602960248201527f4552433732313a207472616e73666572206f6620746f6b656e2074686174206960448201526839903737ba1037bbb760b91b606482015260840161058f565b6001600160a01b038216610fdc5760405162461bcd60e51b8152602060048201526024808201527f4552433732313a207472616e7366657220746f20746865207a65726f206164646044820152637265737360e01b606482015260840161058f565b610fe78383836113c0565b610ff2600082610d9a565b6001600160a01b038316600090815260046020526040812080546001929061101b908490612187565b90915550506001600160a01b0382166000908152600460205260408120805460019290611049908490612150565b909155505060008181526003602052604080822080546001600160a01b0319166001600160a01b0386811691821790925591518493918716917fddf252ad1be2c89b69c2b068fc378daa952ba7f163c4a11628f55a4df523b3ef91a4505050565b6110b48282610bb9565b6108df576110cc816001600160a01b031660146113cb565b6110d78360206113cb565b6040516020016110e8929190611f93565b60408051601f198184030181529082905262461bcd60e51b825261058f91600401612045565b6111188282610bb9565b6108df576000828152602081815260408083206001600160a01b03851684529091529020805460ff1916600117905561114e3390565b6001600160a01b0316816001600160a01b0316837f2f8788117e7eff1d82e926ec794901d17c78024a50270940304540a733656f0d60405160405180910390a45050565b61119c8282610bb9565b156108df576000828152602081815260408083206001600160a01b0385168085529252808320805460ff1916905551339285917ff6391f5c32d9c69d2a47ea670b442974b53935d1edc7fd64eb21e047a839171b9190a45050565b60008151116112365760405162461bcd60e51b815260206004820152600b60248201526a496e76616c69642055524960a81b604482015260640161058f565b61124282600b546115ad565b600b546000908152600c60209081526040909120825161126492840190611b01565b50600b80549060006112758361221c565b91905055505050565b816001600160a01b0316836001600160a01b031614156112e05760405162461bcd60e51b815260206004820152601960248201527f4552433732313a20617070726f766520746f2063616c6c657200000000000000604482015260640161058f565b6001600160a01b03838116600081815260066020908152604080832094871680845294825291829020805460ff191686151590811790915591519182527f17307eab39ab6107e8899845ad3d59bd9653f200f220920489ca2b5937696c31910160405180910390a3505050565b611358848484610eff565b611364848484846115c7565b610c2e5760405162461bcd60e51b815260040161058f90612058565b60006001600160e01b031982166380ac58cd60e01b14806113b157506001600160e01b03198216635b5e139f60e01b145b806104805750610480826116d4565b6106c5838383611709565b606060006113da836002612168565b6113e5906002612150565b67ffffffffffffffff81111561140b57634e487b7160e01b600052604160045260246000fd5b6040519080825280601f01601f191660200182016040528015611435576020820181803683370190505b509050600360fc1b8160008151811061145e57634e487b7160e01b600052603260045260246000fd5b60200101906001600160f81b031916908160001a905350600f60fb1b8160018151811061149b57634e487b7160e01b600052603260045260246000fd5b60200101906001600160f81b031916908160001a90535060006114bf846002612168565b6114ca906001612150565b90505b600181111561155e576f181899199a1a9b1b9c1cb0b131b232b360811b85600f166010811061150c57634e487b7160e01b600052603260045260246000fd5b1a60f81b82828151811061153057634e487b7160e01b600052603260045260246000fd5b60200101906001600160f81b031916908160001a90535060049490941c93611557816121ca565b90506114cd565b5083156107a15760405162461bcd60e51b815260206004820181905260248201527f537472696e67733a20686578206c656e67746820696e73756666696369656e74604482015260640161058f565b6108df8282604051806020016040528060008152506117c6565b60006001600160a01b0384163b156116c957604051630a85bd0160e11b81526001600160a01b0385169063150b7a029061160b903390899088908890600401612008565b602060405180830381600087803b15801561162557600080fd5b505af1925050508015611655575060408051601f3d908101601f1916820190925261165291810190611f4b565b60015b6116af573d808015611683576040519150601f19603f3d011682016040523d82523d6000602084013e611688565b606091505b5080516116a75760405162461bcd60e51b815260040161058f90612058565b805181602001fd5b6001600160e01b031916630a85bd0160e11b149050610ef7565b506001949350505050565b60006001600160e01b03198216637965db0b60e01b148061048057506301ffc9a760e01b6001600160e01b0319831614610480565b6001600160a01b0383166117645761175f81600980546000838152600a60205260408120829055600182018355919091527f6e1540171b6c0c960b71a7020d9f60077f6af931a8bbf590da0223dacf75c7af0155565b611787565b816001600160a01b0316836001600160a01b0316146117875761178783826117f9565b6001600160a01b0382166117a35761179e81611896565b6106c5565b826001600160a01b0316826001600160a01b0316146106c5576106c5828261196f565b6117d083836119b3565b6117dd60008484846115c7565b6106c55760405162461bcd60e51b815260040161058f90612058565b6000600161180684610b32565b6118109190612187565b600083815260086020526040902054909150808214611863576001600160a01b03841660009081526007602090815260408083208584528252808320548484528184208190558352600890915290208190555b5060009182526008602090815260408084208490556001600160a01b039094168352600781528383209183525290812055565b6009546000906118a890600190612187565b6000838152600a6020526040812054600980549394509092849081106118de57634e487b7160e01b600052603260045260246000fd5b90600052602060002001549050806009838154811061190d57634e487b7160e01b600052603260045260246000fd5b6000918252602080832090910192909255828152600a9091526040808220849055858252812055600980548061195357634e487b7160e01b600052603160045260246000fd5b6001900381819060005260206000200160009055905550505050565b600061197a83610b32565b6001600160a01b039093166000908152600760209081526040808320868452825280832085905593825260089052919091209190915550565b6001600160a01b038216611a095760405162461bcd60e51b815260206004820181905260248201527f4552433732313a206d696e7420746f20746865207a65726f2061646472657373604482015260640161058f565b6000818152600360205260409020546001600160a01b031615611a6e5760405162461bcd60e51b815260206004820152601c60248201527f4552433732313a20746f6b656e20616c7265616479206d696e74656400000000604482015260640161058f565b611a7a600083836113c0565b6001600160a01b0382166000908152600460205260408120805460019290611aa3908490612150565b909155505060008181526003602052604080822080546001600160a01b0319166001600160a01b03861690811790915590518392907fddf252ad1be2c89b69c2b068fc378daa952ba7f163c4a11628f55a4df523b3ef908290a45050565b828054611b0d906121e1565b90600052602060002090601f016020900481019282611b2f5760008555611b75565b82601f10611b4857805160ff1916838001178555611b75565b82800160010185558215611b75579182015b82811115611b75578251825591602001919060010190611b5a565b50611b81929150611b85565b5090565b5b80821115611b815760008155600101611b86565b600067ffffffffffffffff831115611bb457611bb461224d565b611bc7601f8401601f19166020016120fb565b9050828152838383011115611bdb57600080fd5b828260208301376000602084830101529392505050565b80356001600160a01b038116811461048357600080fd5b600082601f830112611c19578081fd5b81356020611c2e611c298361212c565b6120fb565b82815281810190858301855b85811015611c6357611c51898684358b0101611c70565b84529284019290840190600101611c3a565b5090979650505050505050565b600082601f830112611c80578081fd5b6107a183833560208501611b9a565b600060208284031215611ca0578081fd5b6107a182611bf2565b60008060408385031215611cbb578081fd5b611cc483611bf2565b9150611cd260208401611bf2565b90509250929050565b600080600060608486031215611cef578081fd5b611cf884611bf2565b9250611d0660208501611bf2565b9150604084013590509250925092565b60008060008060808587031215611d2b578081fd5b611d3485611bf2565b9350611d4260208601611bf2565b925060408501359150606085013567ffffffffffffffff811115611d64578182fd5b8501601f81018713611d74578182fd5b611d8387823560208401611b9a565b91505092959194509250565b60008060408385031215611da1578182fd5b611daa83611bf2565b915060208301358015158114611dbe578182fd5b809150509250929050565b60008060408385031215611ddb578182fd5b611de483611bf2565b9150602083013567ffffffffffffffff811115611dff578182fd5b611e0b85828601611c70565b9150509250929050565b60008060408385031215611e27578182fd5b611e3083611bf2565b946020939093013593505050565b60008060408385031215611e50578182fd5b823567ffffffffffffffff80821115611e67578384fd5b818501915085601f830112611e7a578384fd5b81356020611e8a611c298361212c565b8083825282820191508286018a848660051b8901011115611ea9578889fd5b8896505b84871015611ed257611ebe81611bf2565b835260019690960195918301918301611ead565b5096505086013592505080821115611ee8578283fd5b50611e0b85828601611c09565b600060208284031215611f06578081fd5b5035919050565b60008060408385031215611f1f578182fd5b82359150611cd260208401611bf2565b600060208284031215611f40578081fd5b81356107a181612263565b600060208284031215611f5c578081fd5b81516107a181612263565b60008151808452611f7f81602086016020860161219e565b601f01601f19169290920160200192915050565b60007f416363657373436f6e74726f6c3a206163636f756e742000000000000000000082528351611fcb81601785016020880161219e565b7001034b99036b4b9b9b4b733903937b6329607d1b6017918401918201528351611ffc81602884016020880161219e565b01602801949350505050565b6001600160a01b038581168252841660208201526040810183905260806060820181905260009061203b90830184611f67565b9695505050505050565b6000602082526107a16020830184611f67565b60208082526032908201527f4552433732313a207472616e7366657220746f206e6f6e20455243373231526560408201527131b2b4bb32b91034b6b83632b6b2b73a32b960711b606082015260800190565b60208082526031908201527f4552433732313a207472616e736665722063616c6c6572206973206e6f74206f6040820152701ddb995c881b9bdc88185c1c1c9bdd9959607a1b606082015260800190565b604051601f8201601f1916810167ffffffffffffffff811182821017156121245761212461224d565b604052919050565b600067ffffffffffffffff8211156121465761214661224d565b5060051b60200190565b6000821982111561216357612163612237565b500190565b600081600019048311821515161561218257612182612237565b500290565b60008282101561219957612199612237565b500390565b60005b838110156121b95781810151838201526020016121a1565b83811115610c2e5750506000910152565b6000816121d9576121d9612237565b506000190190565b600181811c908216806121f557607f821691505b6020821081141561221657634e487b7160e01b600052602260045260246000fd5b50919050565b600060001982141561223057612230612237565b5060010190565b634e487b7160e01b600052601160045260246000fd5b634e487b7160e01b600052604160045260246000fd5b6001600160e01b03198116811461227957600080fd5b5056fea26469706673582212206fde9b4c184b8000958fb0780b8be4b14442496c85073987d3e1b246f8312b8b64736f6c63430008030033",
  "linkReferences": {},
  "deployedLinkReferences": {}
}