{
  "_format": "hh-sol-artifact-1",
  "contractName": "ProofOfPullRequest",
  "sourceName": "contracts/ProofOfPullRequest.sol",
  "abi": [
    {
      "anonymous": false,
      "inputs": [
        {
          "indexed": true,
          "internalType": "address",
          "name": "to",
          "type": "address"
        },
        {
          "indexed": true,
          "internalType": "uint256",
          "name": "tokenId",
          "type": "uint256"
        }
      ],
      "name": "Minted",
      "type": "event"
    },
    {
      "inputs": [
        {
          "internalType": "address",
          "name": "_token",
          "type": "address"
        }
      ],
      "name": "initialize",
      "outputs": [],
      "stateMutability": "nonpayable",
      "type": "function"
    },
    {
      "inputs": [
        {
          "internalType": "string",
          "name": "_uri",
          "type": "string"
        }
      ],
      "name": "mint",
      "outputs": [],
      "stateMutability": "nonpayable",
      "type": "function"
    }
  ],
  "bytecode": "0x608060405234801561001057600080fd5b506104c9806100206000396000f3fe608060405234801561001057600080fd5b50600436106100365760003560e01c8063c4d66de81461003b578063d85d3d2714610050575b600080fd5b61004e610049366004610307565b610063565b005b61004e61005e366004610335565b610143565b600054610100900460ff1661007e5760005460ff1615610082565b303b155b6100e95760405162461bcd60e51b815260206004820152602e60248201527f496e697469616c697a61626c653a20636f6e747261637420697320616c72656160448201526d191e481a5b9a5d1a585b1a5e995960921b606482015260840160405180910390fd5b600054610100900460ff1615801561010b576000805461ffff19166101011790555b6000805462010000600160b01b031916620100006001600160a01b03851602179055801561013f576000805461ff00191690555b5050565b60005460405163d0def52160e01b8152620100009091046001600160a01b03169063d0def5219061017a90339085906004016103f7565b600060405180830381600087803b15801561019457600080fd5b505af11580156101a8573d6000803e3d6000fd5b50506000805460405163f8b2cb4f60e01b81523360048201529193506201000090046001600160a01b0316915063f8b2cb4f9060240160206040518083038186803b1580156101f657600080fd5b505afa15801561020a573d6000803e3d6000fd5b505050506040513d601f19601f8201168201806040525081019061022e91906103df565b60008054919250906201000090046001600160a01b03166329f99b9f3361025660018661045a565b6040516001600160e01b031960e085901b1681526001600160a01b039092166004830152602482015260440160206040518083038186803b15801561029a57600080fd5b505afa1580156102ae573d6000803e3d6000fd5b505050506040513d601f19601f820116820180604052508101906102d291906103df565b604051909150819033907f30385c845b448a36257a6a1716e6ad2e1bc2cbe333cde1e69fe849ad6511adfe90600090a3505050565b600060208284031215610318578081fd5b81356001600160a01b038116811461032e578182fd5b9392505050565b600060208284031215610346578081fd5b813567ffffffffffffffff8082111561035d578283fd5b818401915084601f830112610370578283fd5b8135818111156103825761038261047d565b604051601f8201601f19908116603f011681019083821181831017156103aa576103aa61047d565b816040528281528760208487010111156103c2578586fd5b826020860160208301379182016020019490945295945050505050565b6000602082840312156103f0578081fd5b5051919050565b600060018060a01b038416825260206040818401528351806040850152825b8181101561043257858101830151858201606001528201610416565b818111156104435783606083870101525b50601f01601f191692909201606001949350505050565b60008282101561047857634e487b7160e01b81526011600452602481fd5b500390565b634e487b7160e01b600052604160045260246000fdfea2646970667358221220b974ff1f7544785abccba8680fa28a4fa7e3372dc19f6a655b9a4e2b58dd8a0464736f6c63430008030033",
  "linkReferences": {},
  "deployedLinkReferences": {}
}